:10000000C0200020310900002D0900002D0900004A
:1000100000000000000000000000000000000000E0
:100020000000000000000000000000002D0900009A
:1000300000000000000000002D0900002D09000054
:100040002D0900002D09000009040000C101000075
:100050007D0300002D0900002D090000250400008B
:10006000350400004504000055040000650400004C
:10007000750400006D0200007D0200008D0200008A
:100080009D020000AD020000BD0200000000000063
:1000900000000000050100002D0900002D090000EE
:1000A0002D09000010B5064C2378002B07D1054B15
:1000B000002B02D0044800E000BF0123237010BDD4
:1000C0000800002000000000A80A000008B5084B46
:1000D000002B03D00748084900E000BF0748036829
:1000E000002B00D108BD064B002BFBD09847F9E749
:1000F00000000000A80A00000C000020A80A000070
:100100000000000038B52D4B1C6823681D7EEDB241
:10011000EA0735D5E27ED20732D5A27ED2072FD5A7
:1001200001221A762268537E5BB2002BFBDB6169E9
:100130008B1C6361538B9BB20B80238B013B9BB267
:100140002383002B11D0637F002B19D02268537EAC
:100150005BB2002BFBDB117B02230B431373226882
:10016000537E5BB2002BFBDB0AE0237F052B07D11C
:1001700000232377013322689375201CA3689847D6
:100180006B070BD5042322681376E37E9B0705D506
:10019000A37E9B0702D5201CE3689847AB070BD5CD
:1001A000022322681376E37E5B0705D5A37E5B07F7
:1001B00002D52369201C984738BDC046580000204E
:1001C00010B5124B1A681468D38A918A1940237AA1
:1001D000E0790340D80906D04B0701D51369984749
:1001E0008023237210E0D80706D5CB0701D593688A
:1001F00098470123237207E09B0705D58B0701D59C
:10020000D36898470223237210BDC0465C000020CB
:1002100038B58000144BC5582B689C7B2B7E1C4046
:100220006B7E1C40E30705D5281CAB68984701236B
:100230002A689373A30705D5281CEB689847022307
:100240002A689373E30605D5281C2B699847102369
:100250002A689373A30605D5281C6B6998472B68F9
:1002600020229A7338BDC0466000002008B50020E7
:10027000014B984708BDC0461102000008B5012097
:10028000014B984708BDC0461102000008B5022086
:10029000014B984708BDC0461102000008B5032075
:1002A000014B984708BDC0461102000008B5042064
:1002B000014B984708BDC0461102000008B5052053
:1002C000014B984708BDC0461102000030B5084BED
:1002D0001C68084A00258021490206E0002C04D051
:1002E0005460956013680B42FCD00138F6D230BDE3
:1002F0000000002010E000E0044A117802230B43C4
:10030000137053785BB2002BFBDB70470018004082
:1003100000B583B0124A916940230B43936101A950
:1003200000230B7003200F4B984703200E4B984778
:100330000E4A117801230B43137053785BB2002BE4
:10034000FBDB0B4B191C4031002204C38B42FCD158
:100350001022084B1A60084B984703B000BDC046F6
:1003600000040040090800007D070000001800405C
:100370007800002000E100E0F902000070B50022E2
:10038000154B1A7000231F25144E134C1F2B19D91F
:100390000FE0002100E012490A619B009B59002BED
:1003A00000D0984723780133DBB223700F2BEDD9AF
:1003B00011E0291C194001228A40002109691142DB
:1003C000E7D1EFE7291C194001228A400449096955
:1003D0001142E0D1E6E770BDB800002078000020AF
:1003E0000018004000B583B001AB80221A700A7873
:1003F0005A704A789A708A78DA70191C014B9847BB
:1004000003B000BDCD08000008B50122034B9A716E
:10041000034B1B68002B00D0984708BD001000401C
:10042000BC00002008B5024B1B680020984708BD9F
:100430002400002008B5024B5B680120984708BDE6
:100440002400002008B5024B9B680220984708BD95
:100450002400002008B5024BDB680320984708BD44
:100460002400002008B5024B1B690420984708BDF2
:100470002400002008B5024B5B690520984708BDA1
:10048000240000207047C0460C4B1B68002B10D185
:10049000EFF31083002B09D172B6BFF35F8F0022F8
:1004A000074B1A700132074B1A7002E00022054B0D
:1004B0001A70024A13680133136070473C00002031
:1004C0000400002040000020084B1A68013A1A601E
:1004D0001B68002B09D1064B1B78002B05D001228D
:1004E000044B1A70BFF35F8F62B670473C00002068
:1004F000400000200400002070B50C4C236A0178F5
:10050000857842780120024092014026B34313438C
:10051000021C2A40D2017F308343134303220A4046
:10052000120203490B401343236270BD00080040D0
:10053000FFFCFFFF072803D880001E4B1B589F4677
:10054000172036E01C4A116A02230B431362002075
:100550002FE0194A916902230B439361002028E0A0
:10056000154A118A02230B431382002021E0124A0C
:10057000918A02230B43938200201AE00F4B1968E3
:1005800002220A431A601A680D4B13400A4A9384E8
:10059000111C1022CB681A42FCD0084A9168064B05
:1005A000D96251689962126892B29A84002000E080
:1005B00000207047680A0000000800404400002046
:1005C0007FFF000030B585B0C222D2001A4B9A607E
:1005D0001A4A53681E218B43536001236A461370E5
:1005E0000024174DE0B26946A84701341C2CF9D10C
:1005F00003A800244470012585700470114B9847AE
:100600000620114B9847114B9847114B1C725C7296
:100610009C72DC7201956B465C7006236A4613700F
:1006200014725472002069460A4B984700200A4B06
:10063000984705B030BDC04600080040004000416A
:1006400009080000F9040000350500005D060000FF
:10065000000400408106000039070000064A916945
:1006600008230B4393610122044B1A70191C0B7869
:100670001342FCD17047C04600040040000C00400B
:1006800070B5061C041C0D782D0205434B78002B19
:1006900002D08023DB021D434B7A002B02D0802343
:1006A0001B031D434868012818D9431E184210D166
:1006B000022806D90223002201325B009842FBD8AF
:1006C00000E0002212023243141C80235B031D430E
:1006D00004E00402344380239B021D430B7A002B69
:1006E00002D080239B031D430F4A53785BB2002B3B
:1006F000FBDB0E4B98470E4B1E700B4A53785BB2D8
:10070000002BFBDB084B9C601A1C53785BB2002B60
:10071000FBDB054A516880235B020B401D4355609B
:10072000044B984770BDC046000C0040890400008F
:10073000080C0040C904000010B5041C0B4A537893
:100740005BB2002BFBDB0A4B98470A4B1C70074A35
:1007500053785BB2002BFBDB044A536880214902CB
:100760000B435360044B984710BDC046000C00403B
:1007700089040000040C0040C904000010B5041CEA
:10078000064B9847064B1C70064A51888023DB01B4
:100790000B435380044B984710BDC04689040000AA
:1007A000020C0040000C0040C904000010B5041CFD
:1007B0000F4B98470F4B1C700F4B5A881205100FA8
:1007C00059880E4A0A405A8059880D4A0A405A8070
:1007D000191C8022D2014B881342FCD10649020227
:1007E0004888064B034013434B80064B984710BD87
:1007F00089040000020C0040000C0040FFF0FFFFE5
:10080000FFBFFFFFC904000010B50C7824020443A9
:10081000024B9847A4B2024B5C8010BDAD070000AC
:10082000000C004030B5D378002B1ED11478802CFA
:1008300004D0240680235B021C4300E0002453788C
:100840000225AB430AD19378002B03D180239B026E
:100850001C4302E0C023DB021C4341605378013B90
:10086000012B12D8184B1C400FE041600B041B0CED
:10087000A024E405234383620B0CD02424062343E5
:100880008362D378002B18D01CE00B041B0CA0252E
:10089000ED052B43234383620B0CD0252D062B4300
:1008A00023438362D378002B0CD1630305D593785F
:1008B000012B01D1816100E041615378013B012BA3
:1008C00000D8816030BDC046FFFFFBFF08B5031CA8
:1008D0000A1CC1090020002904D15809C00105499A
:1008E0008C4660441F210B401E399940024B9847AB
:1008F00008BDC04600440041250800007047C046BE
:1009000008B5054B9847054B9847054B9847054B4D
:100910009847054B984708BDC505000085040000B1
:10092000FD08000011030000FD080000FEE7C046BE
:1009300010B51D4B1D4A9A4203D01D4B1A4A9A42CC
:1009400004D31C4B1C4A9A4210D31EE01B4A184B7E
:1009500003339B1A9B0801339B0000221248134962
:100960008C58845004329A42FAD1EAE7144A114B67
:1009700003339B1A9B0801339B0000220E48002181
:100980001418216004329A42FAD10E4AFF210E4B0C
:100990008B4393600D4A516880230B4353600C4B8B
:1009A00098470C4B9847FEE700000020A80A00007B
:1009B00008000020C00000200800002004000020E3
:1009C0000C00002000ED00E00000000000400041AD
:1009D0001D0A0000D909000070B582B00B4B984782
:1009E00001A901234B7000228A700B700B20084B69
:1009F0009847084C80252D012E1CA661FA20064B35
:100A000098476561FA20044B9847F6E70109000012
:100A1000E503000000440041CD0200000E4B70B51C
:100A200000251E1C0D4CE41AA410A54204D0AB00F6
:100A3000F35898470135F8E700F026F8084B0025F1
:100A40001E1C084CE41AA410A54204D0AB00F358B5
:100A500098470135F8E770BD940A0000940A000039
:100A6000940A0000980A000060050000400500009C
:100A700040050000B0050000520500006E050000B2
:100A8000440500007C050000F8B5C046F8BC08BC71
:100A90009E467047CD000000F8B5C046F8BC08BCC3
:080AA0009E467047A50000000E
:080AA800401F000001000000E6
:0400000300000931BF
:00000001FF
